:100000000C9431010C9425220C94FE210C9459017E
:100010000C9459010C9459010C9459010C945901F8
:100020000C9459010C9459010C9459010C945901E8
:100030000C9459010C94A4220C9459010C9459016C
:100040000C94B4210C9459010C9472220C944C22FF
:100050000C9459010C9459010C9459010C945901B8
:100060000C9459010C9459014E414E494E49545932
:10007000494E46CDCCCC3D0AD7233C17B7D1387773
:10008000CC2B329595E6241FB14F0A000020410089
:1000900000C84200401C4620BCBE4CCA1B0E5AAED3
:1000A000C59D7400407A10F35A00A0724E180900E2
:1000B00010A5D4E80000E87648170000E40B5402CD
:1000C0000000CA9A3B000000E1F505000080969808
:1000D00000000040420F000000A086010000001058
:1000E0002700000000E8030000000064000000009A
:1000F000000A00000000000100000000002C76D87B
:1001000088DC674F0823DFC1DFAE59E1B1B796E560
:10011000E3E453C63AE651997696E8E6C28426EBC4
:10012000898C9B62ED407C6FFCEFBC9C9F40F2BAD7
:10013000A56FA5F490055A2AF75C936B6CF9676D6F
:10014000C11BFCE0E40D47FEF520E6B500D0ED90C4
:100150002E0300943577050080841E080000204E91
:100160000A000000C80C333333330F986E1283112A
:1001700041EF8D2114893BE65516CFFEE6DB18D101
:10018000844B381BF77C1D901DA4BBE424203284D3
:10019000725E228100C9F124ECA1E53D2742414471
:1001A00020496E76616C696420706172616D65745E
:1001B000657273004F4B20446F6E650042414420CE
:1001C000556E6B6E6F776E20636F6D6D616E640040
:1001D0004F4B2031003B4D3D00525820696E6974F1
:1001E00069616C697A656420463D00434331313072
:1001F000314475696E6F20726561647920563D31B6
:100200003B523D0000000000250028002B000000AC
:100210000000230026002900000000080002010061
:1002200000030407000000000000000000000000C0
:10023000240027002A000102040810204080010247
:10024000040810200102040810200404040404041B
:100250000404020202020202030303030303CB228B
:100260009A2811241FBECFEFD8E0DEBFCDBF11E02A
:10027000A0E0B1E0EAE8F3E602C005900D92A43BED
:10028000B107D9F724E0A4EBB1E001C01D92A5337A
:10029000B207E1F711E0C0E3D1E004C02197FE010D
:1002A0000E94F92ECF32D107C9F70E9472230C9415
:1002B000B8310C9400008FEF089580912E0490E0E7
:1002C000FC01E750FE4F20812093F801FC01EE5025
:1002D000FE4F20812093F101FC01E551FE4F20816A
:1002E0002093EA01FC01EC51FE4F20812093E301B1
:1002F0002091E201213039F484529E4FFC0180812B
:100300008093DB010895223061F4FC01E452FE4F3A
:1003100020812093DB018B529E4FFC0180818093D2
:10032000D40108959FB7F8948091D301882319F0E0
:1003300081508093D3018091D301811105C08CB588
:100340008F7B8CBD1092C6019FBF0895833081F0D2
:1003500028F4813099F08230A9F008958730A9F00F
:100360008830C9F08430B1F4809180008F7D03C063
:10037000809180008F7780938000089584B58F7777
:1003800084BD089584B58F7DFBCF8091B0008F77B9
:100390008093B00008958091B0008F7DF9CFCF9306
:1003A000DF93282F30E0F901E85EFD4F8491F901D9
:1003B000EA5CFD4FD491F901E65BFD4FC491CC237B
:1003C000A1F081110E94A601EC2FF0E0EE0FFF1FBB
:1003D000E25FFD4FA591B491EC91ED2381E090E0B7
:1003E00009F480E0DF91CF91089580E090E0FACFAA
:1003F0001F93CF93DF93282F30E0F901E85EFD4F84
:100400008491F901EA5CFD4FD491F901E65BFD4F5F
:10041000C491CC23A9F0162F81110E94A601EC2FC4
:10042000F0E0EE0FFF1FEC5FFD4FA591B4918FB789
:10043000F894EC91111108C0D095DE23DC938FBFA6
:10044000DF91CF911F910895DE2BF8CFCF93DF93EB
:1004500090E0FC01EA5CFD4F2491865B9D4FFC011E
:1004600084918823D1F090E0880F991FFC01E45D0E
:10047000FD4FA591B491FC01EC5FFD4FC591D49166
:1004800061110EC09FB7F8948C91E22FE0958E23F6
:100490008C932881E223E8839FBFDF91CF91089559
:1004A0008FB7F894EC91E22BEC938FBFF6CFCF93FC
:1004B00061E08091F8010E94260261E08091EA01EA
:1004C0000E94260260E08091F1010E94260261E014
:1004D0008091E3010E942602CFB7F8948091D30166
:1004E000811127C0E4E5F2E08491E0E4F2E0949128
:1004F000E82FF0E0EE0FFF1FE45DFD4FA591B491F2
:10050000EC91E92321F461E08AE00E94F80161E0C6
:100510008AE00E9426028CB580618CBD8CB5806417
:100520008CBD61E08DE00E94260261E08BE00E94BC
:1005300026028091D3018F5F8093D301CFBFCF91EB
:1005400008953FB7F8948091C2019091C301A091A2
:10055000C401B091C50126B5A89B05C02F3F19F075
:100560000196A11DB11D3FBFBA2FA92F982F882733
:10057000BC01CD01620F711D811D911D42E0660F0E
:10058000771F881F991F4A95D1F70895CF92DF9260
:10059000EF92FF920E94A1026B017C010E94A102D6
:1005A0006C197D098E099F09683E7340810591058C
:1005B000A8F3FF90EF90DF90CF9008950895DB01AE
:1005C00014964D915C9115976D917C91DC01ED91A4
:1005D000FC910280F381E02D0994AF92BF92CF92FB
:1005E000DF92EF92FF920F931F93CF93DF936C01F3
:1005F0007B018B01040F151FEB015E01AE18BF08D4
:10060000C017D10759F06991D601ED91FC91019085
:10061000F081E02DC6010995892B79F7C501DF919D
:10062000CF911F910F91FF90EF90DF90CF90BF90EF
:10063000AF900895FC01538D448D252F30E0842F19
:1006400090E0821B930B541710F0CF9608950197FA
:100650000895FC01918D828D981761F0A28DAE0FE7
:10066000BF2FB11D5D968C91928D9F5F9F73928F6E
:1006700090E008958FEF9FEF0895FC01918D828D9A
:10068000981731F0828DE80FF11D858D90E0089567
:100690008FEF9FEF0895FC01918D228D892F90E0BF
:1006A000805C9F4F821B91098F73992708958FEF6C
:1006B00091E00E944B0321E0892B09F420E0822F76
:1006C000089580E090E0892B29F00E945703811162
:1006D0000C9400000895FC01A48DA80FB92FB11D42
:1006E000A35ABF4F2C91848D90E001968F73992768
:1006F000848FA689B7892C93A089B1898C91837046
:1007000080648C93938D848D981306C00288F3893E
:10071000E02D80818F7D80830895EF92FF920F936B
:100720001F93CF93DF93EC0181E0888F9B8D8C8D9D
:1007300098131AC0E889F989808185FF15C09FB791
:10074000F894EE89FF896083E889F9898081837054
:10075000806480839FBF81E090E0DF91CF911F9103
:100760000F91FF90EF900895F62E0B8D10E00F5F24
:100770001F4F0F731127E02E8C8D8E110CC00FB6FA
:1007800007FCFACFE889F989808185FFF5CFCE0192
:100790000E946B03F1CFEB8DEC0FFD2FF11DE35A9F
:1007A000FF4FF0829FB7F8940B8FEA89FB89808115
:1007B0008062CFCFCF93DF93EC01888D8823B9F08F
:1007C000AA89BB89E889F9898C9185FD03C080815C
:1007D00086FD0DC00FB607FCF7CF8C9185FFF2CFD9
:1007E000808185FFEDCFCE010E946B03E9CFDF91C1
:1007F000CF910895CF93DF93FC01EE57FF4F4081D7
:10080000469FF001479FF00D1124DF0123E0B695CC
:10081000A7952A95E1F7EC01CB57DF4F28812A17DE
:100820001B0629F124F12297288130E0E770FF2789
:10083000E90102C0D595C795EA95E2F7A80FB91F5F
:100840002C912C2330E058E0541B469F402D11245E
:100850004770541B02C0359527955A95E2F78A5781
:100860009F4FFC012083822FDF91CF9108958FEF5E
:10087000FBCFCF93DF93FC0187A943A954A987300D
:1008800081F4141615066CF4A2A920AD2150330B87
:10089000A21713067CF5AF5FA2ABAE0FBF2FB11D41
:1008A0001C9275A9C72FD0E0282F30E02F5F3F4F53
:1008B0002C1B3D0B1216130624F401C0660F2A955B
:1008C000EAF7A2A9AE0FBF2FB11D9C91692B6C93C3
:1008D0004F5F5F4F54AB43AB282F082E000C330BF8
:1008E0002C1B3D0B871B37FD87E087AB81E0DF9139
:1008F000CF91089580E0FBCF0F931F93CF93DF93A9
:10090000FC01DC01AF55BF4F8D919C91009709F41C
:1009100069C0168217821086118612861386148685
:100920001586411101C0482F262F30E035952795B7
:10093000A42FB0E0B595A79580E060FF14C0EF014B
:10094000CA55DF4F88812817A0F5EF01C20FD31FCA
:1009500089A1C82FCF70CE0FDF2FD11D9E819F5F41
:100960009E832F5F3F4FBF016A557F4F022F10E0DC
:100970000A171B0700F5EB019881291720F4E801FD
:10098000CE0FDF1F89A1C82FD0E034E0D595C795E1
:100990003A95E1F7CE0FDF1F9E819F5F9E83C82FA0
:1009A000CF70CE0FDF2FD11D9E819F5F9E832F5F63
:1009B000DDCF80E0CECF40FF15C0EF01CA55DF4F3D
:1009C0009881A91720F4AE0FBF1F91968C9190E0EB
:1009D00024E0959587952A95E1F7E80FF91F868120
:1009E0008F5F8683DF91CF911F910F910895CF93F1
:1009F000DF931F92CDB7DEB769838C539F4FDC0125
:100A0000ED91FC9190E080E0309721F061E0CE0123
:100A1000019609950F90DF91CF910895CF93DF93C1
:100A2000EC018031910538F024E0969587952A9560
:100A3000E1F70E940E05CF70DD27C55BDE4F6881B0
:100A400081E693E0DF91CF910C94F704CF93DF938D
:100A5000FC019C0124543F4FD9011C9211961C9219
:100A600011A25D971C92119611961C921E921496DB
:100A700087E08C93108E178A59968FEF8C93808322
:100A80005297CF0106961D921D92EC011992CE014C
:100A9000A217B307C1F7128A86E990E0968B858B7F
:100AA000DF01A855BF4F40E050E060E87EE34D9382
:100AB0005D936D937C931397108A138A148A5796CB
:100AC0001C92118A10A2178E83E08583DF91CF914B
:100AD0000895CF93DF93E0E097FF07C02DE2FB017D
:100AE0002083919581959109E1E0A5E2B1E050E084
:100AF0002D913D9140E38217930728F04F5F821BB1
:100B0000930B51E0F8CF552329F0EB01CE0FD11D07
:100B10004883EF5F21FFECCFDB01AE0FB11D805D9D
:100B20008C93EF5FE60FF72FF11D1082CB01DF9161
:100B3000CF91089508958091C601882351F08FB711
:100B4000F8949091C601913019F41DBA8FBF0895A1
:100B50001FBE08958EBD00000DB407FEFDCF8EB5FB
:100B60000895CF93DF93D82F0E945702C091E301DD
:100B700060E08C2F0E94F8018091F1010E94CF016A
:100B8000892BD1F78D2F0E94AA0561E08C2F0E943E
:100B9000F8010E949B05DF91CF910C9492010E9475
:100BA0005D0160E080912C040E94F80186E30E94C0
:100BB000B10584E30C94B105CF92DF92EF92FF92DE
:100BC0001F93CF93DF93EC0190931A018093190147
:100BD000C0901501D0901601E0901701F090180117
:100BE00020E030E046E953E4C701B6010E94A22F9D
:100BF00087FD66C020E030E04EEA53E4C701B6014D
:100C00000E94EF2C18160CF45BC012E1C33E8FEF6C
:100C1000D807F4F0CE014D961DE08A309105C0F062
:100C20000A971CE18530910598F0059714E385300B
:100C3000910570F0059711E58A30910548F00A9703
:100C400015E8059728F026971BEC229708F012EC80
:100C500081E08093D20180911401823009F0F0C0CC
:100C600010920C0110930D010E9457021091E301A4
:100C700060E0812F0E94F8018091F1010E94CF0174
:100C8000892BD1F78EE70E94AA05CCE0D1E084E160
:100C9000E82E81E0F82E89910E94AA05EC16FD0647
:100CA000D1F761E0812F0E94F8010E949B05DF913E
:100CB000CF911F91FF90EF90DF90CF900C94920115
:100CC00020E030E04DEB53E4C701B6010E94A22FB3
:100CD00087FD2FC020E030E048EE53E4C701B601A5
:100CE0000E94EF2C18162CF112E1C33E8FEFD807AB
:100CF000F4F0CE014D961EE08A309105C0F00A97BF
:100D00001DE18530910598F0059714E38530910534
:100D100070F0059710E68A30910548F00A9714E8BC
:100D2000059728F0269718EC229708F010EC82E03F
:100D300090CF20E030EC42E454E4C701B6010E94B9
:100D4000A22F87FD39C02CE53FEF40E654E4C701F0
:100D5000B6010E94EF2C18167CF113E0C33E8FEF12
:100D6000D80744F1CE014D9617E18A30910510F174
:100D70000A971DE185309105E8F0059716E2853068
:100D80009105C0F0059717E38430910598F004971A
:100D900010E58630910570F0069716E885309105CC
:100DA00048F005971DEC029728F0289715EC23973B
:100DB00008F010EC83E04DCF20E030E041E654E451
:100DC000C701B6010E94A22F87FD45CF20E030E089
:100DD00048E654E4C701B6010E94EF2C18160CF443
:100DE0003ACF13E0C33E8FEFD80744F1CE014D96C2
:100DF0001EE08A30910510F10A971EE185309105B9
:100E0000E8F0059717E285309105C0F0059718E3E3
:100E10008430910598F004971EE88630910570F0B3
:100E2000069714E88530910548F005971CEC029769
:100E300028F0289713EC239708F010EC84E009CFF2
:100E400010930C0110920D010FCF1F93CF93DF93DE
:100E5000182FD62F0E945702C091E30160E08C2F1B
:100E60000E94F8018091F1010E94CF01892BD1F7F6
:100E7000812F0E94AA058D2F0E94AA0561E08C2F68
:100E80000E94F8010E949B05DF91CF911F910C9465
:100E90009201CF93DF93C82F0E945702C06CD0916C
:100EA000E30160E08D2F0E94F8018091F1010E9422
:100EB000CF01892BD1F78C2F0E94AA0580E00E94D8
:100EC000AA05C82F61E08D2F0E94F8010E949B05A2
:100ED0000E9492018C2FDF91CF91089588E00E94AB
:100EE000490790E020E030E040E08034910524F0B4
:100EF00080549109405CF9CF803191051CF04097F6
:100F0000305FF3CF843091051CF004972C5FEDCF58
:100F10004093D1013093D0012093CF018093CE0133
:100F2000089582E10E94490790E020E030E040E02F
:100F30008038910524F0805891094058F9CF8031CC
:100F400091051CF04097305FF3CF883091051CF07D
:100F50000897285FEDCF4093CD013093CC012093CB
:100F6000CB018093CA010895CF93C82F853008F034
:100F7000C4E0C09314010E949107C23071F130F4B3
:100F8000C13061F01092CC0180E10BC0C33051F14F
:100F900080E7C430B9F78093CC01F6CF80E180932D
:100FA000CC018093C9016091CD018091CC01680F83
:100FB0008091CB01680F8091CA01680F82E10E9485
:100FC00025076091C90182E20E94250780911901DD
:100FD00090911A01CF910C94DC0580E38093CC01B1
:100FE00081E1DFCF80E4D7CF8093C8018823C1F0AF
:100FF0006BE080E00E94250766E082E00E94250702
:1010000065E088E00E94250768EF81E10E942507DE
:101010006BE080E10E942507809114010C94B407D5
:101020006DE080E00E9425076DE082E00E942507C8
:1010300062E388E00E94250763E981E10E942507B9
:1010400067E0E7CF9F92AF92BF92CF92DF92EF928D
:10105000FF920F931F93CF93DF93EB01182F092F6C
:10106000CB01A12FB02F8093150190931601A0936F
:101070001701B09318016B01E12EF02EB12CA12CB9
:10108000912C20E030E040ED51E4B601C7010E9410
:10109000A22F87FD0CC020E030E040ED51E4B60106
:1010A000C7010E94FF2E6B017C019394EACF20E0E0
:1010B00030E040ED5DE3B601C7010E94A22F87FD3D
:1010C0000CC020E030E040ED5DE3B601C7010E94B6
:1010D000FF2E6B017C01A394D4CF22EE32E040EDD1
:1010E00059E3B601C7010E94A22F87FD0FC122EE6E
:1010F00032E040ED59E3B601C7010E94FF2E6B01BB
:101100007C01B394BECF20E030E04EEA53E4BE0150
:10111000812F902F0E94EF2C18160CF40EC1BE01E7
:10112000812F902F0E946C2F6C5271408109910980
:1011300032E0660F771F881F991F3A95D1F720E399
:1011400030E040E050E00E942C2ECA01B901685EF8
:101150007F4F8F4F9F4F8CE00E94250724EA30E796
:1011600041EA53E4BE01812F902F0E94EF2C87FFAC
:101170000FC06BE08EE2DF91CF911F910F91FF9036
:10118000EF90DF90CF90BF90AF909F900C94250789
:1011900069E08EE20E94250784E20E9449078032BE
:1011A00028F460E2680F84E20E9425078091D20152
:1011B000813009F415C18091190190911A01DF91D4
:1011C000CF911F910F91FF90EF90DF90CF90BF9044
:1011D000AF909F900C94DC0520E030EC42E454E4A6
:1011E000BE01812F902F0E94A22F87FD48C02CE5C1
:1011F0003FEF40E654E4BE01812F902F0E94EF2C78
:101200001816ECF1BE01812F902F0E946C2F9B01CC
:10121000AC012B50334041095109ABE0B0E00E94D2
:101220004B2E28E730E040E050E00E942C2ECA010F
:10123000B9016F5B7F4F8F4F9F4F8CE00E94250756
:1012400020E030E447E554E4BE01812F902F0E9456
:10125000EF2C87FD8ECF69E08EE20E94250784E2A5
:101260000E944907803228F460E2680F84E20E94FD
:1012700025078091D201833009F4B2C09CCF20E0D1
:1012800030E041E654E4BE01812F902F0E94A22F4E
:1012900087FDA6C020E030E048E654E4BE01812F7F
:1012A000902F0E94EF2C18160CF49AC0BE01812FCB
:1012B000902F0E946C2F6458734081099109660F2A
:1012C000771F881F991F2CE130E040E050E00E941A
:1012D0002C2ECA01B901635B7F4F8F4F9F4F8CE06B
:1012E0000E94250769E08EE20E94250784E20E94A1
:1012F0004907803228F460E2680F84E20E942507E3
:101300008091D201843009F056CF6AC0692D8DE0FA
:101310000E9425076A2D8EE00E9425076B2D8FE025
:101320000E94250720E030E046E953E4BE01812F0A
:10133000902F0E94A22F87FFE6CE20E030E04DEBF9
:1013400053E4BE01812F902F0E94A22F87FD44CF2E
:1013500020E030E048EE53E4BE01812F902F0E9440
:10136000EF2C18160CF438CFBE01812F902F0E945D
:101370006C2F9B01AC012A57314041095109A7E06C
:10138000B0E00E944B2E26E530E040E050E00E94A5
:101390002C2ECA01B901615E7F4F8F4F9F4F8CE0A9
:1013A0000E94250720E030E447ED53E4BE01812F81
:1013B000902F0E94EF2C87FDDCCE69E08EE20E9428
:1013C000250784E20E944907803228F460E2680F12
:1013D00084E20E9425078091D201823009F0EBCE91
:1013E000DF91CF911F910F91FF90EF90DF90CF9001
:1013F000BF90AF909F900895DC0112968D919C91C3
:10140000DC01ED91FC910280F381E02D42E050E09F
:101410006CE571E00994FC01828193810C94DF02F8
:101420000F931F93CF93DF93EC018B018A819B81F4
:10143000DC01ED91FC910190F081E02D6EE50995C4
:10144000B8018A819B81DF91CF911F910F910C94FC
:10145000DF028091B901882391F00E94CF0560914D
:1014600006017091070180910801909109010E9485
:10147000220880910A010E94B4070C94CF050895B8
:10148000CF92DF92EF92FF92CF93F8940E94A10245
:10149000C090B401D090B501E090B601F090B701D2
:1014A000DC01CB018C199D09AE09BF09C2E0C093D4
:1014B000BC0121E03DE73093BB012093BA0130939A
:1014C00087002093860022E12093810081302DE760
:1014D0009207A105B105B8F14A9932C02FEF32E861
:1014E0008091A9028A35D8F48091A9028F5F8093F8
:1014F000A9028091AA026091A8020E94BE2E909338
:10150000AA02E091AA02F0E0EE0FFF1FE855FD4F9E
:10151000368325838091AA028F5F8093AA020E945E
:10152000A1026093B4017093B5018093B6019093CA
:10153000B7017894CF91FF90EF90DF90CF9008950E
:1015400021E03DE7CDCF813127E29207A105B1052A
:1015500080F321E13DE740E050E0281B390B4A0BC6
:101560005B0BA0EAB0E00E944B2E6B017C0124E1F2
:1015700030E040E050E00E948D2E2115310581E0E1
:1015800048075105A8F481E08093BC013093BB016A
:101590002093BA018091BA019091BB01909387008A
:1015A000809386008091BC01806180938100C1CFCF
:1015B000C093BC01C701B60120EA30E040E050E032
:1015C0000E948D2EE3CFCF92DF92EF92FF920F9386
:1015D0001F93F8940E94A1020091B4011091B501EB
:1015E0002091B6013091B7016B017C01C01AD10A7C
:1015F000E20AF30A6093B4017093B5018093B601D7
:101600009093B7018AE5C816D104E104F10498F17A
:1016100081E0C8168DE7D806E104F10430F0CC244F
:10162000C3949DE7D92EE12CF12C96014A9B04C06E
:10163000222733272C193D098091A9028A35D8F435
:101640008091A9028F5F8093A9028091AA02609184
:10165000A8020E94BE2E9093AA02E091AA02F0E096
:10166000EE0FFF1FE855FD4F368325838091AA02B8
:101670008F5F8093AA0278941F910F91FF90EF9053
:10168000DF90CF900895CF92DF92EF92FF92CF93A9
:101690006B017C0120E030E046E953E40E94A22F78
:1016A00087FD0AC020E030E04EEA53E4C701B601EE
:1016B0000E94EF2C18165CF520E030E841EC53E472
:1016C000C701B6010E94A22F87FD0AC020E030E0CA
:1016D00048EE53E4C701B6010E94EF2C1816BCF483
:1016E00020E030EC42E454E4C701B6010E94A22F8E
:1016F00087FD0BC0C1E020E030E048E654E4C701BC
:10170000B6010E94EF2C18161CF4C0E001C0C1E025
:101710008C2FCF91FF90EF90DF90CF9008950E9493
:101720005D0184E30E94490790E0803891051CF038
:101730009A9597FD0196959587958A5491090895F4
:1017400081E08093B9010E94290AF894E1E8F0E071
:10175000108210928500109284008091BC018061FB
:10176000808381E693E00E942605E8EAF2E0128297
:101770001382118283EE9AE090930101809300011D
:10178000E9E6F0E080818C7F81608083E89A78943C
:101790000895CF92DF92EF92FF920F931F93CF9312
:1017A000DF9300D000D0CDB7DEB77B018C01698319
:1017B0007A838B839C830E94430BD82E882311F15C
:1017C000A701B801409306015093070160930801F7
:1017D00070930901CE0101967C0102E010E0F7014F
:1017E000C1907F01C8010E94162EC81621F06C2DF1
:1017F000C8010E941E2E0F5F1F4F0630110579F79A
:101800000E94290A8D2D0F900F900F900F90DF915D
:10181000CF911F910F91FF90EF90DF90CF9008959F
:101820000E948931CF93DF93DB01109799F0FB0180
:1018300001900020E9F73197BF016A1B7B0B8C53A5
:101840009F4FEC01E881F981309721F0CD01DF91C4
:10185000CF91099490E080E0DF91CF910895CF93EC
:10186000DF93CDB7DEB728970FB6F894DEBF0FBE73
:10187000CDBF809122048F3FA1F06FE571E081E63A
:1018800093E00E94120C80916503882399F0809167
:10189000220490E00E940E056BE381E693E00E9433
:1018A000F70428960FB6F894DEBF0FBECDBFDF91C8
:1018B000CF91089563EA71E081E693E00E94120CF3
:1018C00080912204BE016F5F7F4F90E00E94690506
:1018D000BE016F5F7F4F81E693E00E94120CDCCF68
:1018E000FC0180819181009711F00C94C62860E082
:1018F00070E0CB0108950F931F93CF93DF93EC011A
:1019000088819981009759F02A813B8126173707F2
:1019100030F081E0DF91CF911F910F9108958B01FD
:101920006F5F7F4F0E94CC30009759F09983888376
:101930001B830A832C813D81232B59F7FC011082E4
:10194000E8CF80E0E7CFCF93DF93EC0188819981E6
:10195000009711F00E944330198218821D821C8268
:101960001B821A82DF91CF910895EF92FF920F931D
:101970001F93CF93DF938C017B01EB010990002033
:10198000E9F72197C61BD70BBE010E947B0C811182
:1019900009C0C801DF91CF911F910F91FF90EF9087
:1019A0000C94A30CF801D583C483B7018081918185
:1019B000DF91CF911F910F91FF90EF900C94B13177
:1019C0000F931F93CF93DF93CDB7DEB762970FB618
:1019D000F894DEBF0FBECDBF8C01CB01F8011182A0
:1019E000108213821282158214824AE0BE016F5F58
:1019F0007F4F0E94FD28BE016F5F7F4FC8010E948C
:101A0000B50C62960FB6F894DEBF0FBECDBFDF9166
:101A1000CF911F910F910895EF92FF920F931F9313
:101A2000CF93DF93CDB7DEB7A1970FB6F894DEBFA3
:101A30000FBECDBF7C01CB01BA01F701118210822C
:101A400013821282158214828E010F5F1F4F22E0D3
:101A500044E00E94A428009789F0BC01C7010E94BD
:101A6000B50CA1960FB6F894DEBF0FBECDBFDF91C7
:101A7000CF911F910F91FF90EF900895C7010E94A1
:101A8000A30CEFCFEF92FF920F931F93CF93DF93AF
:101A9000EC017B01198218821B821A821D821C8232
:101AA000FB0101900020E9F731978F01061B170B0E
:101AB000B8010E947B0C811109C0CE01DF91CF914A
:101AC0001F910F91FF90EF900C94A30C1D830C833A
:101AD000B70188819981DF91CF911F910F91FF907C
:101AE000EF900C94B131FC0180819181009711F04D
:101AF0000C94433008950F931F93CF93DF9300D03E
:101B000000D000D0CDB7DEB78C0161E671E0CE0128
:101B100001960E94420DBE016F5F7F4F8CE992E0FB
:101B20000E94100ACE0101960E94730DB8018CE943
:101B300092E00E940B0A26960FB6F894DEBF0FBE05
:101B4000CDBFDF91CF911F910F910895EF92FF923A
:101B50000F931F93CF93DF93CDB7DEB728970FB6C0
:101B6000F894DEBF0FBECDBF8C017B0163E671E050
:101B7000CE0101960E94420DBE016F5F7F4FC801EA
:101B80000E94100ACE0101960E94730DF801838510
:101B90001A8219821C821B821E821D828F831886E4
:101BA000BE01695F7F4FCE0101960E94B50CBE0158
:101BB0006F5F7F4FC8010E940B0ACE0101960E9401
:101BC000730DB701C8010E940B0AC8010E94FC09ED
:101BD00028960FB6F894DEBF0FBECDBFDF91CF9130
:101BE0001F910F91FF90EF900895EF92FF921F9336
:101BF000CF93DF9300D000D000D0CDB7DEB77C010B
:101C0000162F8FEF91E00E941A03892BD1F3113028
:101C100039F4F7018081833079F1A8F48230D1F072
:101C2000412F50E0B7018FEF91E00E94ED02269620
:101C30000FB6F894DEBF0FBECDBFDF91CF911F91DD
:101C4000FF90EF9008958A3011F08D3049F781E0D0
:101C500090E0EDCF64E771E0CE0101960E94420D65
:101C6000BE016F5F7F4F8CE992E00E94100ACE01A7
:101C700001960E94730DEBCF65E671E0CE010196EF
:101C80000E94420DBE016F5F7F4F8CE992E00E947F
:101C90000B0ACE0101960E94730D409106015091EE
:101CA00007016091080170910901CE0101960E941F
:101CB0000C0DBE016F5F7F4F8CE992E00E940B0A12
:101CC000CE0101960E94730D68E671E0CE01019687
:101CD0000E94420DBE016F5F7F4F8CE992E00E942F
:101CE0000B0ACE0101960E94730D60910A0170915A
:101CF0000B01CE0101960E94E00CBE016F5F7F4F89
:101D00008CE992E00E940B0ACE0101960E94730DAD
:101D100065E871E0CE0101960E94420DBE016F5F41
:101D20007F4F80919E0290919F020E94DF028CE97A
:101D300092E00E94FC099BCFEF92FF920F931F93BA
:101D4000CF93DF93EC018B01198218821B821A82D8
:101D50001D821C82CB010E94F4287C01BC01CE01B3
:101D60000E947B0C811109C0CE01DF91CF911F91A0
:101D70000F91FF90EF900C94A30CFD82EC82B801C0
:101D800088819981DF91CF911F910F91FF90EF9002
:101D90000C94ED282F923F924F925F926F927F9218
:101DA0008F929F92AF92BF92CF92DF92EF92FF926B
:101DB0000F931F93CF93DF9300D01F92CDB7DEB761
:101DC000DC0153961C92662309F465C08C010F5503
:101DD0001F4FF801208131812115310509F45BC0C5
:101DE000A62EB12CA216B306BCF00F900F900F9048
:101DF000DF91CF911F910F91FF90EF90DF90CF90E7
:101E0000BF90AF909F908F907F906F905F904F901A
:101E10003F902F900C9426059B838A837C01F1E2EE
:101E2000EF0EF11CFC01E056FF4FC9010197A81607
:101E3000B90609F046C0AA81BB8191961C92919780
:101E40001082F8011182108287E0FD01EB55FF4FEF
:101E5000808381E0EA81FB81838BD8016D917C9145
:101E6000161617060CF0DBC061507109C7010E94FD
:101E7000FA03EA81FB81E955FF4F8081082E000CAF
:101E8000990B8A5A9F4F880F991FEA81FB818E0F09
:101E90009F1F90A3878F0F900F900F90DF91CF918E
:101EA0001F910F91FF90EF90DF90CF90BF90AF9078
:101EB0009F908F907F906F905F904F903F902F906A
:101EC00008952A803B8043EA240E311CD1014C91B5
:101ED000842E912C649F2001112457FE03C0B7E08B
:101EE0004B0E511C53E0559447945A95E1F74982A3
:101EF00068E0C62ED12CC601B4010E94CA2EC501CD
:101F00000E94CA2EBC0190813201772461157105AF
:101F100009F463C0469F802D112468E0681B41E2EC
:101F2000640E711C2A803B80260C371CA701742D7F
:101F3000D9807D194916B0F4D101CD901D016C9066
:101F4000712C062E02C0759467940A94E2F7082E4D
:101F500001C0CC0C0A94EAF7C628DA01CD92AD0193
:101F60004394E5CF20FD11C04A815B81470F511D8D
:101F7000AA81BB81A40DB11D91969C9101C0990FBE
:101F80008A95EAF7DA0191969C932A193B09D801C0
:101F90002D933C93829E6001839ED00C929ED00C28
:101FA0001124C60168E070E00E94CA2EAA81BB819C
:101FB000AB55BF4F882379F097E0981B892F8C93FE
:101FC000C6018819990997FD079633E0959587957D
:101FD0003A95E1F73DCF87E0F2CF94199083492FEE
:101FE00050E04F5F5F4FB701660D771DC7010E943C
:101FF0009F31F101608170E0C6010E94CA2E669D8A
:102000009001679D300D769D300D1124D8018D9182
:102010009C911197821B930B8D939C931ACFAA814D
:10202000BB8190961C921E925F9735CF2F923F9264
:102030004F925F926F927F928F929F92AF92BF92D8
:10204000CF92DF92EF92FF920F931F93CF93DF9384
:10205000CDB7DEB7C355D1090FB6F894DEBF0FBEBA
:10206000CDBF9E012F5F3F4F38A72FA386E1D90137
:102070001D928A95E9F78091200420910204309105
:102080000304811104C0283231050CF499C3109265
:10209000730391E02E3F310509F090E090937503B2
:1020A00040E060E0811177C281E693E00E947C0409
:1020B000B12C8B2C912CB0911D04BFA7EB2FE150BC
:1020C000FF0B8E169F060CF00BC1B394F401EF5971
:1020D000FC4FCF0106962681222359F3AB2C9401A5
:1020E000220F331FA901435F5B4F58AB4FA79AAB39
:1020F00089AB5CAB4BAB80911D04A816D0F6EA2CE3
:10210000F12CB7016F597C4F1B01DB0116968C91A6
:10211000882309F4E3C0EFA5F8A9C080D180F701B6
:10212000EE0FFF1FE35FFB4F00811181C601802787
:10213000912797FDD3C04090090450900A04609005
:102140000B0470900C04B80117FF04C066277727B2
:10215000601B710B072E000C880B990B0E94F62C4C
:10216000A30192010E94552D6DAB7EAB8FAB98AF52
:10217000B601D7FE04C0662777276C197D09072EA4
:10218000000C880B990B0E94F62CA30192010E946F
:10219000552D9B01AC016DA97EA98FA998AD0E9418
:1021A000002F20E030E040E05FE30E94552D0E94C8
:1021B0006C2F0C191D0917FF03C01195019511090A
:1021C000601771070CF48AC010E000E0F6E02F0EF3
:1021D000311CD101CC90612F70E08091020490916C
:1021E0000304681779070CF042C00C1508F03FC0D3
:1021F00082E893E00E94FA0380910804082E000C04
:10220000990BE816F90689F520910404422F50E055
:10221000129F90011124F90193E0F695E7959A95A4
:10222000E1F780910704E817F8F427703327FF27B8
:10223000EF59FC4F8091050490E0022E02C0959565
:1022400087950A94E2F7809591A1892368E070E070
:10225000641B750BAB01421B530B940101C0220F91
:102260004A95EAF7822B81A30F5F1F5FB2CFA9A91E
:10227000BAA9DC904D2D50E0EBA9FCA9A081B18159
:102280009A010E94DE2E2B013C018701000F111FD5
:10229000035F1B4FEC2DF0E0D8018D919C919F01C5
:1022A000DC010E94DE2E640D751D861D971D4E0FEC
:1022B0005F1F9A01550F440B550B0E942C2EEBA962
:1022C000FCA931832083DC0CA9A9BAA9DC92F7010F
:1022D000EF59FC4F1682F80111821082A3940BCFA4
:1022E00010927903109278038FEF8093610320900E
:1022F0000204309003042DE034E03AAB29AB10E047
:1023000000E0EE24EA94FE2C4101032C000CAA0804
:10231000BB083FA5031708F057C0A9A9BAA9CD90DB
:10232000DD90BAABA9ABBFEFEB16FB0609F5D7FC06
:1023300048C0F801EF59FC4F668170E090E080E002
:102340000E94F62C2B013C01C501B4010E94F62C21
:1023500028EB3EE145E05EE30E94552D9B01AC0178
:10236000C301B2010E94A22F181624F4780129C0DB
:10237000D7FC27C0F701EE0FFF1FE35FFB4F808103
:102380009181C816D906ECF4F801EF59FC4F66812B
:1023900070E090E080E00E94F62C2B013C01C5012A
:1023A000B4010E94F62C28EB3EE145E05EE30E947A
:1023B000552D9B01AC01C301B2010E94A22F18163A
:1023C000ACF20F5F1F4FA5CFEFEFEE16FE0641F008
:1023D000E092610381E090E0909379038093780329
:1023E0008091780390917903019709F094C08091CE
:1023F0006403882309F48FC0C101863A910514F063
:1024000085EA90E078ED272E280E0FA50150002ECA
:10241000000C110BE6E0CE2ED02EFFEF0F1709F4C3
:10242000B7C0F801EE0FFF1FE35FFB4F8081918182
:1024300097FFABC022273327281B390B89399D4BC7
:102440000CF4A3C0E0916103EE0FFF0BE35FFB4FC1
:102450000190F081E02DC901BF010E94CA2E6D32AA
:1024600071050CF092C0CE9EC001CF9E900D11243C
:10247000821793070CF089C0F801EF59FC4FF680E2
:102480006F2D70E090E080E00E94F62C4B015C0123
:102490006091020470910304072E000C880B990BC5
:1024A0000E94F62C2AE037ED43EA5DE30E94552DA9
:1024B0009B01AC01C501B4010E94EF2C87FF65C0F0
:1024C00051E05F1508F061C0F12CE12CE21408F036
:1024D0005CC057016FEFA61AB60AB50182E893E017
:1024E0000E94FA0380910804D8124DC0B70182E817
:1024F00093E00E94FA03909108048091610398137D
:1025000042C0D0921F0482E090E0909379038093C0
:102510007803E09271038091780390917903029798
:1025200011F00C94BC1D80910204909103048897D3
:1025300014F40C94BC1D809171038E5F8093720320
:1025400010E06091720370E08091020490910304A6
:1025500001976817790724F56F5F7F4F82E893E052
:1025600011110C94781D0E94FA0311E09091080457
:1025700080911F04981301C010E0809172038E5F58
:1025800080937203DECF7501A1CF0150110944CFB2
:1025900000931F04C0CF81E693E00E947C04BBCF70
:1025A00010E00C94941D80910204909103048E3FDE
:1025B00091050CF0AAC1861B910988970CF4A5C15E
:1025C00062E081E693E00E94F7048091650388232E
:1025D00009F41AC16CE671E081E693E00E94120CE6
:1025E000F12C80911D04F816C8F58F2D90E0FC01A8
:1025F000EE0FFF1FE35FFB4F0081118101151105F5
:1026000039F18F599C4FDC0116968C91882301F18A
:102610006F2D17FF1FC0606A119501951109E02EFB
:1026200007FD1AC06894E7F881E693E00E94F7047A
:102630006E2D81E693E00E94F704612F606881E6C9
:1026400093E00E94F7046BE381E693E00E94F704B5
:10265000F394C7CF6068E3CF6061E6CF80917203E7
:1026600064E480FF64E681E693E00E94F704E09171
:102670007103E0FF33C0E150E0937103E695809170
:102680000704E81748F5F0E0EF59FC4F81A18F707F
:1026900080688FA7682F81E693E00E94F7048091FD
:1026A00071038E5F809371031091710380917203A7
:1026B0008117B0F0E12FE69580910704E81728F420
:1026C000F0E0EF59FC4FB1A1BFA76FA581E693E001
:1026D0000E94F7041E5FEACF80E0D9CF1FA6E4CFA7
:1026E00060E771E081E693E00E94120C6091610363
:1026F000605D81E693E00E94F70463E771E081E6A4
:1027000093E00E94120C60911F04605D81E693E0EB
:102710000E94F7046BE381E693E00E94F7040E94B5
:102720002F0C80917503882331F064E871E081E615
:1027300093E00E94120C10927403609172038091D6
:10274000020490910304861B91098897FCF0809104
:1027500066038823D9F08150809366036F5F81E61A
:1027600093E00E94CA0E109271036DE681E693E039
:102770000E94F70460916603605D81E693E00E9429
:10278000F7046BE381E693E00E94F70463E081E6DF
:1027900093E00E94F7046AE081E693E00E94F70468
:1027A00081E0809373038091730381110C94011C69
:1027B00080916303909162039111BEC08111BFC0EB
:1027C0008091730381110C94501D809174038823B0
:1027D00011F40C94541D40911D04EDE0F4E090E0E0
:1027E00080E020EDE22E27E0F22E841710F00C940A
:1027F0002F1D219131911216130624F42E153F0539
:102800000CF47C010196F1CF66E771E081E693E07C
:102810000E94120C10E080911D041817C0F5812F42
:1028200090E09C01220F331FF901E35FFB4F7F0112
:1028300020813181232B49F18F599C4FDC01169661
:102840008C91882311F160E581E693E00E94F70402
:1028500060E3610F81E693E00E94F7046DE381E697
:1028600093E00E94F704BE016F5F7F4FF701808104
:1028700091810E946905BC0181E693E00E94120CDF
:102880006BE381E693E00E94F7041F5FC4CF6EE91B
:1028900071E081E693E00E94120C10917103809127
:1028A0007203811778F0612F70E082E893E00E9454
:1028B000FA0360910804605D81E693E00E94F704EA
:1028C0001F5FEDCF6AE771E081E693E00E94120C92
:1028D00060916103605D81E693E00E94F7046FE719
:1028E00071E081E693E00E94120C60911F04605D2C
:1028F00081E693E00E94F7046BE381E693E00E9497
:10290000F7040E942F0C1FA60CCF662361F0809164
:1029100072038D3F40F081E693E00E94CA0E109250
:1029200071030C94BC1D81E693E00E94260581E0B2
:10293000809373030C94BC1D882309F462C78091B3
:102940006F0390917003892B39F585E490E00E9424
:10295000A72FFC0182E380AF81E085AB108212AA31
:1029600014AA13AA87E087AB80E886AB8FEF84AF09
:1029700085AF86AF87AFDF01AD5BBF4F1C9211966D
:102980001C9281E693E093AF82AF14971D921C9244
:10299000F0937003E0936F0380912004811121C0B4
:1029A000E0916F03F09170038FEF84AF85AF87AF35
:1029B00086AFDF01AD5BBF4F1C9211961C9214973E
:1029C0001D921C92108212AA14AA13AA87E087AB48
:1029D000E0916F03F0917003EE5BFF4F8091210453
:1029E00080838091200481110C94E91D20906F0355
:1029F00030907003D101DA960D911C91F801E454E6
:102A0000FF4FF080B3E0BF1508F0FBC67B976081F5
:102A10007181072E000C880B990B0E94F62C2AE07E
:102A200037ED43E25DE30E94552D4B015C0120E050
:102A300030E0A9010E94A22F20E030E040E05FE3F7
:102A400087FD37C0C501B4010E94002F0E946C2F82
:102A5000A8014A5F5F4F980124553F4F812C90E0B9
:102A6000FA018191AF01861788F1E82DF0E03196E7
:102A7000A7E1B0E0AC0FBD1FEA0FFB1F882D882334
:102A8000E9F0DF0112977C91A72FB0E0AA5ABF4F5F
:102A9000AA0FBB1F5D01A00EB11ED901CD90DC9025
:102AA000D501AD90BC90CA14DB0444F472938150FC
:102AB000E6CFC501B4010E94FF2EC8CFE7E1F0E0E8
:102AC000EC0FFD1FE80FF11D908383949F5F2E5F35
:102AD0003F4FF912C5CFFE017796F8A7EFA32196D5
:102AE000FFAFEEAF219740912101509122016091FB
:102AF00023017091240129964CAF5DAF6EAF7FAF7B
:102B00002997B1016D5B7F4F7CAF6BAFC1018E5BCD
:102B10009F4F2B969FAF8EAF2B97D101AC5BBF4FD2
:102B20006496BFAFAEAF64973C96FEA7EDA7FFA13A
:102B30002E96FFAF2E978FAD8F1B881508F061C6BC
:102B40002196AEADBFAD2197ED912196BFAFAEAF4F
:102B500021978E2F90E0880F991FD101DA96ED9181
:102B6000FC91DB97E80FF91FE455FF4F80819181BD
:102B700018161906E4F68FEFDC968C93DC97DD9639
:102B80008C93DD97DF968C93DF97DE968C93208174
:102B900031813AAB29ABC90137FD0196AC0155959E
:102BA00047952D965FAF4EAF2D97BE01695E7F4F63
:102BB00023967FAF6EAF23971EAE1DAE8FEF9FEFB4
:102BC0009AAF89AF29A93AA9032E000C440B550BE3
:102BD00062962CAF3DAF4EAF5FAF6297AE01415EE4
:102BE0005F4F5AA749A7605F7F4F7CA76BA72296CC
:102BF0008FAD22972E967FAD2E97871B881508F0F4
:102C000096CF2396AEADBFAD2397DD902396BFAF91
:102C1000AEAF2397F10122AD33AD8D2D90E08A5AEE
:102C20009F4F880F991F820F931FDC010D911C91FC
:102C300062966CAD7DAD8EAD9FAD62970E94F62C15
:102C40002B013C01780117FF04C0EE24FF24E01A99
:102C5000F10A2DEC3CEC4CE45EE3C301B2010E94AE
:102C6000552D0E946C2F2D968EAD9FAD2D978E19F0
:102C70009F0997FF03C0919581959109681779077E
:102C80000CF07DC72DEC3CEC4CEC5EE3C301B201D3
:102C90000E94552D0E946C2F89A99AA98E199F090F
:102CA00097FF03C0919581959109681779070CF4F6
:102CB0009ECF101611060CF44AC1D101DC96DC92AD
:102CC00065C7F101D6AEBDADBF5FBDAFE9ADFAAD31
:102CD000E00FF11FFAAFE9AFD101DC968C91DC97E0
:102CE0008F3F09F484CFDF968C91DF978F3F09F4F3
:102CF0007ECFDD968C91DD978F3F09F478CFDE96FD
:102D00008C918F3F09F473CF29962CAD3DAD4EAD1C
:102D10005FAD29972BA33CA34DA35EA32F8F38A3B0
:102D200049A35AA3B12CA12C1FEFD101DA96ED9043
:102D3000FC90F701EF55FF4F80819181A816B906ED
:102D40000CF055CFB501C70181960E94FA03F70137
:102D5000E955FF4F0081802F90E0F10124AD022E54
:102D6000000C330B02ACF3ADE02D82179307D9F0C2
:102D7000D101DD962C91DD97022E000C330B8217CA
:102D8000930789F0DF962C91DF97022E000C330B0E
:102D90008217930741F0DE962C91022E000C330B24
:102DA0008217930751F4DF01AF55BF4F8D919C916E
:102DB0000197A816B90609F0CEC080899501281B95
:102DC00031092B96AEADBFAD2B978C91082E000C20
:102DD000990B821793070CF0FEC0A18AF10182AD16
:102DE00093ADDC0151964C91519750966C910E9495
:102DF0007C04F10182AD93ADF6ADFBABD101DD9664
:102E00009C90DD97DF960C91DF97DC96BC91BDAB73
:102E1000FC012BA9E20FF11D27FDFA95C680FC01EC
:102E2000E90DF11D97FCFA952681C20EDD24DD1C0B
:102E3000FC01E00FF11D07FDFA952681C21AD108A9
:102E4000FC01EB0FF11DB7FDFA952681ABADBCADD2
:102E50001C92C21AD108D7FE03C0D194C194D108E4
:102E60000D2C000CEE08FF088F559F4FFC010190C0
:102E7000F081E02D2596FFAFEEAF2597BF01FF0F44
:102E8000880B990B0E94F62C2AE037ED43E25DE3B4
:102E90000E94552D2B013C0120E030E0A9010E9449
:102EA000A22F20E030E040E05FE387FD8FC0C30148
:102EB000B2010E94002F0E946C2F6C157D058E05BB
:102EC0009F050CF494CEFDAD2EADF21390CE3DA92E
:102ED000931609F48CCE4BA9401709F488CE03173A
:102EE00009F485CE491509F482CE431709F47FCE43
:102EF000901609F47CCEDE015F96FE01B3968191B7
:102F00009D91891709F41CC79F3F19F08F3F09F065
:102F100017C725962EAD3FAD25972A193B092B964D
:102F2000EEADFFAD2B978081082E000C990B821718
:102F300093070CF05CCE1BA31F8F1CA318A31DA32B
:102F400019A31EA31AA33FEFA31AB30AEECED10111
:102F5000DD96DC92B8CEABADBCAD8C91811105C0D5
:102F6000A08AE1E0ABADBCADEC93D101DA96ED9077
:102F7000FC90B5016F5F7F4FC70181960E94FA03F5
:102F8000F701E955FF4F2081BAE00B9F200D112476
:102F90002A3008F42C599DA58EA5A0FE02C099A543
:102FA0008AA5E92FF82F80E0422F50E09191692FF8
:102FB000092E000C770B64177507F1F4982F8F5FBB
:102FC000843009F4C0CF9F3F89F3BDCFC301B20164
:102FD0000E94FF2E70CFABADBCAD1C926496EEADDF
:102FE000FFAD649710821F8F1BA318A31CA319A306
:102FF0001DA31AA31EA3A7CF9F3F21F4DF011197A2
:103000002C93DCCF9FEFDBCFDE962C91DE97022E48
:10301000000C330B2E173F07F1F0DA962D913C91FF
:10302000DB97EA5AFF4FEE0FFF1FE20FF31FDD960B
:103030008C91082E000C990B8A5A9F4F880F991F6C
:10304000280F391F40815181F901808191818417B6
:1030500095070CF06DC681E02E1080E08093C701CB
:10306000E090C7016E2DC8010E943904FA94F8015E
:10307000A2ACB3ACF1E0FF1508F47CC0D801DA963D
:10308000ED91FC91F088F4018081882309F452C10C
:10309000D801DA96AD90BC90CF2CD12CB601C501E9
:1030A00081960E94FA03F501E955FF4FE080F8018F
:1030B000A2ACB3ACF501EF55FF4F80819181019730
:1030C000C816D906B4F42E2D30E0D801DC968C91C8
:1030D000DC97082E000C990B2817390709F41CC13E
:1030E000DD968C91082E000C990B2817390709F4EE
:1030F00013C1B6016F5F7F4FC50181960E94FA032D
:10310000F501E955FF4F6081F801A2ADB3ADCD01E6
:103110008F559F4FFC01808191810297C816D90677
:1031200064F48091C701811107C1F80187ADE812ED
:1031300004C086AD681709F483C2F3018081082EAC
:10314000000C990BF80123A934A9281739070CF0B2
:10315000FCC0D2011C92F4011082D8011C92D296BC
:103160001C92D297D4961C921E92D397E7E0D796E2
:10317000EC93D7C0CF2CD12CB601C50181960E940B
:10318000FA03F501E955FF4F808190E0F80127AD82
:10319000022E000C330B8217930741F026AD022E4E
:1031A000000C330B8217930709F068CFD801DA9629
:1031B000AD90BC90B60161507109C50181960E9425
:1031C000FA03F501E955FF4F808190E0F80127AD42
:1031D000022E000C330B8217930741F026AD022E0E
:1031E000000C330B8217930709F048CFD801DA9609
:1031F000AD90BC90B1E0EB1247C0E2E0CE1AD1082E
:10320000B601C50181960E94FA03F501E955FF4F09
:103210009081D801DF968C91981307C06E2DC8015C
:103220000E943904FA94FA9422CFF801A2ACB3AC0C
:10323000B601C50181960E94FA03F501E955FF4FD9
:103240008081082E000C990B8A5A9F4F880F991F76
:10325000A80EB91ED801DA962D913C91DB97DC9629
:103260008C91082E000C990B8A5A9F4F880F991F3A
:10327000820F931FF50120813181DC018D919C919A
:10328000281739075CF2CECFE110CCCFB2E0CB1AD1
:10329000D108B601C50181960E94FA03F501E955EE
:1032A000FF4F9081F80186AD981709F4B7CFA2AC13
:1032B000B3ACB601C50181960E94FA03F501E95548
:1032C000FF4F8081082E000C990B8A5A9F4F880F60
:1032D000991FA80EB91ED801DA962D913C91DB9763
:1032E000DD968C91082E000C990B8A5A9F4F880FFF
:1032F000991F820F931FF50120813181DC018D918F
:103300009C91821793070CF489CF8CCF81E02E100B
:1033100080E08093C701B7CE8091C7018325809359
:10332000C701D4018C91882329F06091C701C8019D
:103330000E943904F39471C4813009F081C1F8010D
:1033400086ADE812FACE87ADF5CE5196FC92A2ACCE
:10335000B3ACBDEFFB1216C0D501AF55BF4F8D9179
:103360009C918E3F910571F4F501E154FF4F81E08E
:103370008083D801DA96ED91FC9184E090E0908F03
:10338000878B71C0F801A4AD0A2E000CBB0BAA5AA2
:10339000BF4FAA0FBB1FAA0DBB1D8D919C91D501DC
:1033A000AF55BF4F2D913C91AE2D0E2C000CBB0B99
:1033B000AA5ABF4FAA0FBB1FAA0DBB1D4D915C910E
:1033C0004817590774F4A90141505109C416D5068C
:1033D00044F445AD641709F431C146AD641709F4EE
:1033E0002DC122503109C216D306ECF54E2D50E006
:1033F000D801DF962C91DF97022E000C330B421779
:10340000530741F0DE962C91022E000C330B42172D
:10341000530749F5E62F660FFF0BEA5AFF4FEE0FF1
:10342000FF1FEA0DFB1D2081318128173907DCF4CD
:10343000B6016E5F7F4FC50181960E94FA03F501C8
:10344000E955FF4F808190E0F80124AD022E000C79
:10345000330B8217930709F0C8C081E08F0DF1107C
:10346000ECC0FF24F3946F2DF80182AD93AD0E9460
:10347000CA0ED801DA96ED91FC91DB97E154FF4F2B
:103480008081811103C1F3018081082E000C990B0A
:10349000D3962D913C91281739070CF4F7C062E0C0
:1034A00081E693E00E94F70467E871E081E693E02B
:1034B0000E94120CE0916F03F0917003E4ADEE0FE7
:1034C000FF0BE35FFB4FBE016F5F7F4F80819181F8
:1034D0000E946905BC0181E693E00E94120C6EE82F
:1034E00071E081E693E00E94120CE0916F03F0918D
:1034F0007003E5ADEE0FFF0BE35FFB4FBE016F5FA7
:103500007F4F808191810E946905BC0181E693E033
:103510000E94120C63E971E081E693E00E94120CB4
:10352000E0916F03F0917003E7ADEE0FFF0BE35FE7
:10353000FB4FBE016F5F7F4F808191810E946905C3
:10354000BC0181E693E00E94120C68E971E081E61B
:1035500093E00E94120CE0916F03F0917003E6ADCE
:10356000EE0FFF0BE35FFB4FBE016F5F7F4F80816C
:1035700091810E946905BC0181E693E00E94120CD2
:103580006DE971E081E693E00E94120CE0906F0318
:10359000F090700310E0F70190AD82A9181708F0C1
:1035A0009DC080E0191718F4E10FF11D8081282FCC
:1035B00030E0F4E035952795FA95E1F72A3008F4E4
:1035C00089C0295C2F8B8F708A3008F485C0895C94
:1035D000888F198EBE01695E7F4FD701DA968D9173
:1035E0009C910E94120C1F5FD6CFA2ACB3AC25AD4C
:1035F000022E000C330B8217930709F42ECFB6016D
:103600006D5F7F4FC50181960E94FA03F501E95570
:10361000FF4F808190E0F80127AD022E000C330BA4
:103620008217930709F419CF26AD022E000C330B35
:103630008217930709F017CF10CFF82EF39499CE85
:10364000F3946FCEF501F18AAE5BBF4FFEEFFF1230
:103650003BC0F80142AD53AD8C9187FD8F5F8595DE
:10366000082E000C990BF80123A934A9FA01E154A2
:10367000FF4F8217930714F581E08083D801DA9613
:10368000ED91FC9184E090E0908F878B80912004F5
:10369000882309F4B6C0809174038111AFC01092E1
:1036A000820310920104109203041092020487E036
:1036B0008093060481E080937403A3C01082F80114
:1036C00082AD93ADFC01138A8C91082E000C990BEE
:1036D000D801DECE205D76CF805D7ACF22AD33ADCE
:1036E00060E0191718F4E10FF11D608170E0E4E06B
:1036F00075956795EA95E1F76A3008F4F1C0695C61
:10370000C9010E94F704D701D3962D913C91C901BC
:1037100068E070E00E94CA2E059724F427703327D2
:10372000232B89F4F70182AD93AD20AD60E0121731
:1037300018F4E10FF11D60816F706A3008F4D2C097
:10374000695C0E94F70461EA71E081E693E00E94FF
:10375000120CE0916F03F0917003E05CFF4FBE012B
:103760006F5F7F4F808191810E946905BC0181E676
:1037700093E00E94120C65EA71E081E693E00E94FA
:10378000120CE0916F03F0917003BE016F5F7F4FE9
:1037900083A994A90E946905BC0181E693E00E9477
:1037A000120C6BE381E693E00E94F70480912204FF
:1037B0008F3FC1F069EA71E081E693E00E94120C4C
:1037C00080912204BE016F5F7F4F90E00E946905E7
:1037D000BC0181E693E00E94120C6BE381E693E06A
:1037E0000E94F70463E081E693E00E94F7046AE038
:1037F00081E693E00E94F7041092200481E0809318
:10380000730380916203882311F40C94E013809178
:10381000200481110C94E013809178039091790336
:10382000019711F00C94E01380917303811138C15A
:103830008091020490910304889714F40C94E5138A
:1038400062E081E693E00E94F7048091650388239B
:1038500009F49CC06CEA71E081E693E00E94120CCE
:1038600040E060E081E693E00E947C04F12C8091CE
:103870001D04F816E8F58F2D90E0FC01EE0FFF1FF8
:10388000E35FFB4F008111810115110539F18F595B
:103890009C4FDC0116968C91882301F16F2D17FF48
:1038A00023C0606A119501951109E02E07FD1EC025
:1038B0006894E7F881E693E00E94F7046E2D81E6B4
:1038C00093E00E94F704612F606881E693E00E9414
:1038D000F7046BE381E693E00E94F704F394C7CF0B
:1038E000605D0ECF605D2DCF6068DFCF6061E2CF9D
:1038F0008091020464E680FF64E481E693E00E9424
:10390000F70410E080910104811788F0809107048A
:10391000181730F4E12FF0E0EF59FC4FB1A1BFA729
:103920006FA581E693E00E94F7041F5FEBCF60E78D
:1039300071E081E693E00E94120C60916103605D8A
:1039400081E693E00E94F7046BE381E693E00E9436
:10395000F7040E942F0C80917503882331F064E8EE
:1039600071E081E693E00E94120C63E081E693E04F
:103970000E94F7046AE081E693E00E94F704109247
:10398000740381E0809373030C94E01360EB71E0A7
:1039900081E693E00E94120C40E060E081E693E053
:1039A0000E947C0410E080911D041817C0F5812F3F
:1039B00090E09C01220F331FF901E35FFB4F7F0171
:1039C00020813181232B49F18F599C4FDC011696C0
:1039D0008C91882311F160E581E693E00E94F70461
:1039E00060E3610F81E693E00E94F7046DE381E6F6
:1039F00093E00E94F704BE016F5F7F4FF701808163
:103A000091810E946905BC0181E693E00E94120C3D
:103A10006BE381E693E00E94F7041F5FC4CF6EE979
:103A200071E081E693E00E94120C10E0612F70E0DB
:103A30008091020490910304681779076CF482E87E
:103A400093E00E94FA0360910804605D81E693E0D0
:103A50000E94F7041F5FEACF6AE771E06ACF10E0C7
:103A6000612F70E080910204909103046817790738
:103A7000BCF4F0EDEF16F7E0FF0691F082E893E07A
:103A80000E94FA0380910804082E000C990BE81696
:103A9000F90661F56FEF610F81E693E00E94CA0EAF
:103AA00080917403811108C01091730381E693E043
:103AB0000E94260510937303CD5ADF4F0FB6F8947A
:103AC000DEBF0FBECDBFDF91CF911F910F91FF9051
:103AD000EF90DF90CF90BF90AF909F908F907F90AE
:103AE0006F905F904F903F902F9008951F5FB8CFD9
:103AF0000E94FA039091080480911F0498130C947B
:103B0000BD126091720370E082E893E00E94FA03B4
:103B1000909108048091610398130C94BD128091D8
:103B20007203815080937203809102049091030488
:103B3000209172032817190619F014F0809372036C
:103B4000409172036091710381E693E00E947C04CE
:103B500060917103112311F40C94D31280917203BC
:103B6000861B990B889714F00C94E01281E090E08A
:103B700090937903809378031FA60C94D3131016A7
:103B800011060CF49EC8D101DF96DC92BEADBF5F7A
:103B9000BEAFE9ADFAADE01BF10B9CC86F5F7F4F84
:103BA00006C14E175F07D1F7E615F70509F4B1C94D
:103BB00041E05FEFE51AF50A4111E1C0F101E05C77
:103BC000FF4F89AD9AAD66E070E00E94CA2E718306
:103BD000608300916F0310917003D801DA96ED9124
:103BE000FC91DB97138ADA96ED91FC91DB97108AB2
:103BF000DA96ED91FC91E154FF4F1082F12C4801CF
:103C0000B4E48B0E911C332433943801E2E46E0E3D
:103C1000711C2801F3E44F0E511CCF2CD12CD8017C
:103C2000DA96AD90BC90DB97F501EF55FF4F8081A0
:103C30009181C816D9060CF005CDF401808181115F
:103C400022CAB601C50181960E94FA03F501E95521
:103C5000FF4F808190E0D801DC962C91DC97022EFA
:103C6000000C330B8217930749F0DD962C91022E3E
:103C7000000C330B8217930709F005CAF801A2ACB8
:103C8000B3ACB601C50181960E94FA03F501E9556E
:103C9000FF4F2080D801DD96EC9081E02E1001C00E
:103CA00080E08093C701F801A2ACB3ACB6016150CB
:103CB0007109C50181960E94FA03F501E955FF4F8C
:103CC0008081D4013C92D801DA96ED91FC91DB978A
:103CD000F08AFF2009F41ACBE82FF0E02E1094C9E7
:103CE000DF962C91DF97022E000C330B2E173F0727
:103CF00009F4B1C9DA962D913C91DB97EA5AFF4F4E
:103D0000EE0FFF1FE20FF31FDC968C91082E000CC4
:103D1000990B8A5A9F4F880F991F820F931F2081FA
:103D20003181FC0180819181281739070CF493C9F6
:103D3000D801DA96ED91FC9180898F5F808B90C9D4
:103D40002BA53CA52E173F0709F0D9C88DA95BA963
:103D50006AE0569F800D1124969E000D11248A3032
:103D600008F48C590A3008F40C59DE015F967D0185
:103D70009E012D5D3F4F390190E0202F30E0D301AF
:103D80004D913D01042E000C550B4817590749F081
:103D9000D7014C91042E000C550B8417950709F0A0
:103DA00003CFBE01615E7F4FAE014D5D5F4FDA0113
:103DB000CD90AD010C2C000CDD08C216D30649F0E5
:103DC000DB01CC900C2C000CDD082C153D0509F016
:103DD000E8CEE615F70509F4F1CE40E0EACE2F92E1
:103DE0003F924F925F926F927F928F929F92AF928B
:103DF000BF92CF92DF92EF92FF920F931F93CF93D8
:103E0000DF93CDB7DEB7C35CD1090FB6F894DEBF40
:103E10000FBECDBF8C01DC011496ED90FC90E11437
:103E2000F10471F0F70181917F01882349F0082E98
:103E3000000C990B0E948E31F70131978083F2CFED
:103E40000E945D01D8011B968C911B97863409F462
:103E50007BC274F5843291F08E3381F06CEB71E0AB
:103E6000CE0101960E949C0EBE016F5F7F4FC8017C
:103E70000E94A60DCE0101960E94730DCD53DF4F17
:103E80000FB6F894DEBF0FBECDBFDF91CF911F916B
:103E90000F91FF90EF90DF90CF90BF90AF909F90E9
:103EA0008F907F906F905F904F903F902F900895EC
:103EB0008335D1F060ED71E0863591F28D3471F685
:103EC000C80104960E94700C653008F07EC0862FF1
:103ED00090E090930B0180930A0181E090E00E94B2
:103EE0001E2E0E94290A2DC2F801F085CE53DF4F05
:103EF000F883C25CD0408BB18860CD53DF4F88839C
:103F0000C35CD0408BB1877FC354DF4F8883CD5BC8
:103F1000D04014960D90BC91A02DC054DF4FB983B2
:103F2000A883C05CD040B12CA12CE8EEF3E0C554CE
:103F3000DF4FF983E883CB5BD04085E090E0C2544B
:103F4000DF4F99838883CE5BD040C754DF4F188200
:103F5000C95BD04092E0C654DF4F9883CA5BD04023
:103F600024EA422E20EF522E28ED622E23E4722EF8
:103F7000E12C312C212CCE53DF4FA881C25CD040E4
:103F8000AA1608F03CC1C054DF4FE881F981C05C3B
:103F9000D0408191C054DF4FF983E883C05CD040AA
:103FA0008B3361F08D3309F415C1E1105DC022201F
:103FB00009F41CC1311009C0382E56C0E11008C0E8
:103FC000211003C0332009F44CC06DE971E048CFE3
:103FD000F12C4501AE14BF0410F0470175016EE5E8
:103FE00071E0CE018D549F4F0E94420DD80118966A
:103FF000CD90DC908C149D0408F5EC14FD0408F4BD
:104000006701D8011496ED91FC911597EC0DFD1DFB
:10401000F080108214966D917C91680D791DCE010F
:104020008D549F4F6115710519F10E94B50CF8016F
:1040300084819581C80ED91ED601FC92BDE42B1651
:1040400009F4BDC0B215BCF0E4E42E1609F470C04A
:10405000F6E42F1609F4A2C0CE018D549F4F0E94A2
:10406000730DE12C312C212CBFEFAB1ABB0A83CF8F
:104070000E94A30CDCCF22E5221609F441C063E5BF
:10408000261609F449C080E52812E6CF90ED390ED6
:10409000AAE0A31508F47AC0CE018D549F4F0E9468
:1040A000700C9B01E32DF0E0A9EAB0E0AC0FBD1F5E
:1040B000AE0FBF1F77FF1DC0C354DF4F2881CD5BFC
:1040C000D0402C9322273327261B370BEE0FFF1FE0
:1040D000EE0FFF1F81E890E08C0F9D1FE80FF91F86
:1040E000C901330FAA0BBB0B80839183A283B383D7
:1040F000B3CFCD53DF4F6881C35CD0406C93E6CF24
:10410000CE018D549F4F0E94700CC254DF4F7983B3
:104110006883CE5BD040A0CFCE018D549F4F0E94CC
:10412000700CC554DF4F79836883CB5BD04094CF4C
:10413000C954DF4F48815981C75BD040C754DF4F16
:104140004883C95BD040413808F5CD54DF4F288102
:104150003981C35BD040FE01319690E080E0C754C6
:10416000DF4FA881C95BD0408A1708F075CF84174C
:10417000950790F42115310579F0D901A80FB91FE1
:104180006C916053619301966A3048F3CE018D546F
:104190009F4F0E94730D19CF60E0F3CFCD54DF4FD6
:1041A00088819981C35BD040412C512C320100970A
:1041B00009F452CF0E94C2282B013C014DCFCE0101
:1041C0008D549F4F0E94700CC654DF4F6883CA5BAA
:1041D000D04042CF222009F4F8CE332009F4F5CEA6
:1041E000E110F3CEEE24E394EA0C3ECF803519F4CF
:1041F00080E5282E39CF282E33243A9435CFC301B9
:10420000B2010E94430B882309F4DFCEC654DF4F6E
:10421000E881CA5BD040E53008F0D7CE8091B90183
:10422000882309F4D2CE1092B901F89480E18093EA
:104230008100E8988EED92E0909301018093000157
:1042400081E693E00E9426051092AA021092AB022A
:104250001092A9027894C301B2010E942208C654A8
:10426000DF4F8881CA5BD0400E94B4070E945D0185
:1042700060E080912C040E94F80186E30E94B10561
:1042800085E30E94B105C554DF4F28813981CB5B9E
:10429000D040220F331F220F331F2550310960E019
:1042A000AE014F5F5F4FC254DF4F88819981CE5B73
:1042B000D040681719060CF03EC0FA018E2F841BFF
:1042C000C754DF4F9881C95BD040891708F58191A9
:1042D00090E0A9EAB0E0AC0FBD1FA80FB91F7C9118
:1042E0007BB9880F991F880F991FA1E8B0E0AC0F28
:1042F000BD1FA80FB91F8D919C9182309105F0F2DE
:10430000880F991F880F991F05970197F1F7D6CF4E
:10431000C354DF4FA881CD5BD040ABB9C554DF4F4C
:10432000E881F981CB5BD040329718F0C901019741
:10433000F1F76F5FB8CF8091B901811102C00E947F
:10434000A00B64EB71E08CCD14968D919C9100973D
:1043500039F00E94C2280E94C90B8111F2CF35CEDC
:1043600060E070E0CB01F7CF1F920F920FB60F9273
:1043700011242F933F938F939F93AF93BF9380917B
:10438000BE019091BF01A091C001B091C1013091D7
:10439000BD0123E0230F2D3758F50196A11DB11D56
:1043A0002093BD018093BE019093BF01A093C001F3
:1043B000B093C1018091C2019091C301A091C40149
:1043C000B091C5010196A11DB11D8093C2019093CA
:1043D000C301A093C401B093C501BF91AF919F9158
:1043E0008F913F912F910F900FBE0F901F901895B6
:1043F00026E8230F0296A11DB11DD2CF1F920F9266
:104400000FB60F9211242F933F934F935F936F93A7
:104410007F938F939F93AF93BF93EF93FF93E0911D
:104420000201F09103010995FF91EF91BF91AF91C6
:104430009F918F917F916F915F914F913F912F91BC
:104440000F900FBE0F901F9018951F920F920FB6EE
:104450000F9211242F933F934F935F936F937F930A
:104460008F939F93AF93BF93EF93FF93E0910001DE
:10447000F09101010995FF91EF91BF91AF919F914B
:104480008F917F916F915F914F913F912F910F90FD
:104490000FBE0F901F9018951F920F920FB60F929C
:1044A00011242F933F934F935F936F937F938F9339
:1044B0009F93AF93BF93EF93FF938FEF91E00E9491
:1044C0006B03FF91EF91BF91AF919F918F917F917E
:1044D0006F915F914F913F912F910F900FBE0F9071
:1044E0001F9018951F920F920FB60F9211242F93C1
:1044F0008F939F93EF93FF93E0910F02F09110023F
:104500008081E0911502F091160282FD1BC090811E
:10451000809118028F5F8F7320911902821741F0EA
:10452000E0911802F0E0E150FE4F958F8093180261
:10453000FF91EF919F918F912F910F900FBE0F9050
:104540001F9018958081F4CF1F920F920FB60F9293
:1045500011242F933F934F935F936F937F938F9388
:104560009F93AF93BF93EF93FF93E0910401F0917A
:1045700005010995FF91EF91BF91AF919F918F91A7
:104580007F916F915F914F913F912F910F900FBE4F
:104590000F901F9018950F931F93CF93DF93CFEF3A
:1045A000D1E01B821A8288EE93E0A0E0B0E08C8319
:1045B0009D83AE83BF8381E391E09983888385ECFB
:1045C00090E09D878C8784EC90E09F878E8780ECBD
:1045D00090E0998B888B81EC90E09B8B8A8B82ECAE
:1045E00090E09D8B8C8B86EC90E09F8B8E8B198E50
:1045F0001A8E1B8E1C8E0CE912E083E491E0F80108
:10460000918380836EE571E080EA92E00E94420D22
:104610006EE571E080EA92E00E94B50CF801D38368
:10462000C28312866FEF70E080EA92E00E947B0CFA
:1046300089E491E0F80191838083C1E6D3E08AE7C1
:1046400093E09E8F8D8F18A21F8E8FE780930704B3
:1046500084E08093040419A21092010410920304D0
:104660001092020487E08093060480EF8093050493
:10467000109222048BE591E090932404809323040C
:1046800010922604109225041A8E198ECE010E94D3
:10469000260581E1809321041D8281E08C831F86A1
:1046A0001E86E8EAF2E08AE5808312821382118294
:1046B000E8E2F4E080E180838CE081838BE0828318
:1046C0008AE0838383E0848382E08583809127046A
:1046D00091E0980F909327048683DF91CF911F91EB
:1046E0000F910895CF93DF93CDB7DEB72F970FB615
:1046F000F894DEBF0FBECDBF789484B5826084BDD0
:1047000084B5816084BD85B5826085BD85B58160D5
:1047100085BD80916E00816080936E001092810053
:10472000809181008260809381008091810081600E
:1047300080938100809180008160809380008091CF
:10474000B10084608093B1008091B000816080935B
:10475000B00080917A00846080937A0080917A0022
:10476000826080937A0080917A00816080937A00E1
:1047700080917A00806880937A001092C10014B70B
:1047800014BE0FB6F894A89580916000886180935C
:104790006000109260000FBEE0919E02F0919F02B7
:1047A000A089B18902E00C93A485B5851C92A685E9
:1047B000B78580E18C93108EA489B58986E08C93AF
:1047C000A289B3898C9180618C93A289B3898C91E1
:1047D00088608C93A289B3898C9180688C930288BD
:1047E000F389E02D80818F7D808361E080912C04AE
:1047F0000E94260260E080912D040E94260260E063
:1048000080912C040E94F80180912E0420912B04A9
:1048100030912A04409129045091280491E090930A
:10482000B80190E0FC01E750FE4F5083FC01EE50D0
:10483000FE4F4083FC01E551FE4F3083FC01EC51FB
:10484000FE4F208320912D04FC01E452FE4F309155
:104850002C0430838B529E4FDC012C930093E20199
:1048600061E08091DB010E94260260E08091D4012A
:104870000E9426020E945D010E9457020091E301FE
:1048800061E0802F0E94F80161E08091F8010E94B0
:10489000F80160E08091EA010E94F80160E0802F59
:1048A0000E94F8010E94C60261E0802F0E94F80178
:1048B0000E94C60260E0802F0E94F801F090F10192
:1048C0008F2D0E94CF01892BC9F780E30E94AA0592
:1048D0008F2D0E94CF01892BD9F761E0802F0E9494
:1048E000F80166E08BE00E9425078091C8010E94D4
:1048F000F407609115017091160180911701909154
:1049000018010E94220862E083E10E94250768EFF7
:1049100084E10E94250760E08AE00E94250767E4A1
:1049200085E10E94250766E581E20E94250768E18E
:1049300088E10E94250766E189E10E9425076CE174
:104940008AE10E94250767EC8BE10E94250760E061
:104950008CE10E94250762EB8DE10E94250769EE3C
:1049600083E20E9425076AE284E20E94250760E054
:1049700085E20E9425076FE186E20E94250769E52E
:1049800089E20E94250761E88CE20E94250765E321
:104990008DE20E94250769E08EE20E94250764E00F
:1049A00087E00E94250760E089E00E94250760E01B
:1049B00086E00E9425070E949B050E94920180E0EC
:1049C0000E94F4070E946E0780E38093D0016091FB
:1049D000D1018091CF01680F605D8091CE01680F99
:1049E00088E00E9425070E946E0782E08093CE0136
:1049F0006091D1018091D001680F6E5F8091CF01ED
:104A0000680F88E00E9425070E9491071092CA0152
:104A10006091CD018091CC01680F8091CB01680F2E
:104A200082E10E9425070E946E071092D1016091D9
:104A3000D0018091CF01680F8091CE01680F88E08E
:104A40000E9425070E946E071092CF016091D1014C
:104A50008091D001680F8091CE01680F88E00E949C
:104A600025076DE282E00E9425076EE281E00E9448
:104A700025076DE080E00E94250784E690E00E9413
:104A8000DC0586E30E94B10584E30E94B10581E064
:104A900090E00E94162E082F90E090930B018093D7
:104AA0000A0182E090E00E94162E8093060183E0C6
:104AB00090E00E94162E8093070184E090E00E940F
:104AC000162E8093080185E090E00E94162E8093B8
:104AD0000901053060F46091060170910701809131
:104AE0000801909109010E94430B811113C064EAEF
:104AF00070EF88ED93E40E94C90B82E090E0909300
:104B00000B0180930A0162E081E090E00E941E2E7A
:104B10000E94290A69ED71E0CE0101960E949C0E67
:104B2000CE0101960E947B0DCE0101960E94730D6D
:104B300040910601509107016091080170910901AF
:104B4000CE0101960E940C0DBE016F5F7F4F8CE974
:104B500092E00E940B0ACE0101960E94730D65ED52
:104B600071E0CE0101960E949C0EBE016F5F7F4FE7
:104B70008CE992E00E940B0ACE0101960E94730D0F
:104B800060910A0170910B01CE0101960E94E00C28
:104B9000BE016F5F7F4F80919E0290919F020E94A5
:104BA000DF028CE992E00E94FC09CE0101960E948E
:104BB000730D80E1809381001092800082E08093E9
:104BC000BC0181E09DE79093BB018093BA01909373
:104BD00087008093860082E18093810080E49AE0E0
:104BE000909305018093040181E080936F002FE88A
:104BF0003BE0309324042093230425EF3DE03093E1
:104C00002604209325041092650380936303809308
:104C10006403809362038091B901811102C00E94F4
:104C2000A00B6BEE71E0CE0101960E949C0ECE01AE
:104C300001960E947B0DCE0101960E94730D1B868A
:104C40001A861D861C861F861E864AE0BE016F5F7F
:104C50007F4F812F90E00E941D29BE016F5F7F4F23
:104C6000CE010A960E94B50CBE01665F7F4F80910F
:104C70009E0290919F020E94DF028CE992E00E94C6
:104C8000FC09CE010A960E94730D88E19FE00FB6E1
:104C9000F894A895809360000FBE9093600042E066
:104CA000842E912CA12CB12C50E0652E50E0752E55
:104CB00062E0262E4424439477E0572EE3E0CE2E84
:104CC000D12CA89580919E0290919F02DC01ED91DC
:104CD000FC910084F185E02D0995892B09F4D9C058
:104CE00080919E0290919F02DC01ED91FC910284E3
:104CF000F385E02D0995982F9B7F993019F38E3518
:104D000049F44092A6026EE571E080EA92E00E94CA
:104D1000B50CD8CF9091A602913059F0923091F60F
:104D20008A3061F48CE992E00E94EF1E1092A60294
:104D3000C9CF8093A7022092A602C4CF89831A828A
:104D40000091A4021091A5020F5F1F4FB80180EAE5
:104D500092E00E947B0C882399F02091A002309170
:104D6000A1028091A4029091A502BE016F5F7F4FC6
:104D7000820F931F0E94B1311093A5020093A402E9
:104D80008091A4029091A5028B3F910508F49ACFDF
:104D9000CDCF1092810310928003B9C091E0D8C0AA
:104DA0002832310509F00FC1D0927903C0927803FF
:104DB000E0912304F091240409958093220403C117
:104DC000339427C1032D000F110B035F1B4FD80134
:104DD0006D917C91072E000C880B990BF7012081B7
:104DE0003181032E000C440B550B620F731F841F7F
:104DF000951FA50194010E942C2ED8012D933C9360
:104E0000A32D809106042091020430910304873081
:104E100099F41216130684F4E091010440910704FA
:104E20004150550BE4171506A4F5EF5FE09301041C
:104E3000F0E0EF59FC4F11A290910404492F50E08B
:104E4000682F70E06F5F7F4F641B750B1616170697
:104E50002CF4A32D01C0AA0F6A95EAF7E091010492
:104E6000F0E0EF59FC4F61A1A62BA1A32F5F3F4FAC
:104E70003093030420930204282F082E000C330BD8
:104E8000241B350B37FD47C1891B80930604109204
:104E900074038091A902882309F440C18091A9027A
:104EA00081508093A9028091AB026091A8020E9478
:104EB000BE2E9093AB028091AB028093AC028091A6
:104EC000AB028F5F8093AB02E091AC02F0E0EE0F9B
:104ED000FF1FE855FD4F0581168110927303609105
:104EE000020470910304161617060CF052CF61509D
:104EF000710982E893E00E94FA0380910804880F08
:104F0000990B835F9B4F9093810380938003E09183
:104F10007E03F0917F03118300832091020430917E
:104F20000304E0917E03F0917F032115310509F41C
:104F300035CFA0918003B0918103109709F42ECF53
:104F4000808191814D915C919527991F9927991F97
:104F500081E040815181411553480CF480E041E0EB
:104F60002E3F310509F440E0842311F0911118CF50
:104F70000E94161080917303811104C08091200457
:104F80008823C9F080910204909103041816190631
:104F9000D4F4E0918003F09181033097A1F0A091C7
:104FA0007E03B0917F038D919C9120813181822776
:104FB000932797FD08C081E693E00E942605109292
:104FC000810310928003E0907E03F0907F03F7014D
:104FD00000811181B80117FF04C066277727601B85
:104FE000710B072E000C880B990B0E94F62C2DECF0
:104FF0003CEC4CE45EE30E94552D0E94732F9B0114
:10500000709377036093760360911D04EDE0F4E004
:10501000312C6315C9F081919191A8014827592736
:1050200057FDCECE009709F4CBCEA801481B590BF3
:10503000CA0157FF03C09195819591092817390737
:105040000CF4BECE37FEBECE6830F1F540E060E035
:1050500081E693E00E947C04E0911E04F0E0EF59A9
:10506000FC4F8681833040F00E94161040E060E0E3
:1050700081E693E00E947C04109102041150E091BB
:105080001E04F0E0EF59FC4F86818823E9F08091FF
:1050900002049091030418161906B4F4612F70E00D
:1050A00082E893E00E94FA0380910804082E000C25
:1050B000990B20911E042817190601F761E0610F72
:1050C00081E693E00E94CA0E30901E04E0917E03B8
:1050D000F0917F0380819181E32DF0E0EE0FFF1FBF
:1050E000E35FFB4F9183808381E0830D883061F023
:1050F00080931E0480911E0490911D04981708F05F
:105100007FCE80931D047CCE10921E0480931D04DC
:1051100010922004EFCF50920604B9CE61147104AE
:1051200009F4CFCD0E945703882309F4CACD0E9409
:105130000000C7CD83E491E090939D0280939C0290
:1051400080EA92E00C94730DEF920F931F93CF932C
:10515000DF93E80134E047FD34E1042E000C550BE9
:1051600057FF03C0519541955109E32E022F242F7B
:10517000AE010E943729CE01DF91CF911F910F918F
:10518000EF900895662777270C94962A1F93FC01C9
:1051900099278827BC01E89411911032E9F319305E
:1051A00010F01E30C8F31B3251F01D3249F46894E0
:1051B00006C00E940829610F711D811D911D11916A
:1051C00010531A30B0F33EF4909580957095619528
:1051D0007F4F8F4F9F4F1F910895FB01DC0105907A
:1051E0000D920020E1F70895FC0105900020E9F7F9
:1051F000809590958E0F9F1F0895BB274A3031F4FC
:10520000992322F4BDE2909581959F4F0C941E291D
:10521000592F482F372F262F660F771F881F991F6A
:10522000660F771F881F991F620F731F841F951FBA
:10523000660F771F881F991F0895BB27FB0155270D
:10524000AA27880F991FAA1FA41710F0A41B8395E3
:105250005051B9F7A05DAA3308F0A95DA19300975A
:1052600079F7B111B1931192CB010C94DF2CA9E025
:10527000B0E0EDE3F9E20C945C2E6A01F22EB02E60
:10528000102FFBE3AF2EA01608F41BE31F5F012FC6
:1052900027E0AE014F5F5F4F0E94E62BBC01898182
:1052A000982F9970913009F43FC09BE2E1FC04C053
:1052B0009E2D9170E0FC3AC05E2D5071E82FE87091
:1052C00083FF46C084E0911101C083E0EF2DE81B0D
:1052D0008F1508F0E0E0D6018E2F20E2552351F122
:1052E000992329F0D6019C93C60101966C01960181
:1052F0002D5F3F4FE2FE24C08EE4D6018C9391E4F3
:1053000011969C93119712968C93D9018E2F90E24F
:1053100081111BC0E20FF32FF11D10828EEF9FEF62
:105320002996ECE00C94782E9DE2C6CF90E2C4CF93
:105330002D9381508111FCCFCE0ED11CE0E0D0CF57
:105340008EE6D6018C9391E6DBCF9D938150E0CF22
:10535000482F447082FF3DC084E0911101C083E07A
:105360008F1510F4EF2DE81BD6018E2F20E2552368
:1053700009F1992329F0D6019C93C60101966C018D
:1053800096012D5F3F4FE2FE1BC089E4D6018C934E
:105390008EE411968C93119786E412968C93D90122
:1053A0008E2F90E2882309F4B5CF9D938150FACFD8
:1053B0002D9381508111FCCFCE0ED11CE0E0D9CFCE
:1053C00089E6D6018C938EE611968C93119786E62A
:1053D000E4CF9B0177FF02C030E020E0A1E0B0E025
:1053E000911102C0B0E0A0E0F9013196AE0FBF1FED
:1053F0008B2C912CBB2009F461C05401EFEFAE1A45
:10540000BE0AAA0DBB1DFA161B0619F014F04F2D8B
:105410004A1B511188C0E3FC59C07601A42FB0E2A9
:10542000A1114FC0C40ED11C992309F45BC040E008
:10543000D6011196F60190836D01552309F448C0F9
:10544000012F060F9A81582F507184FF03C09133AA
:1054500009F4015010160CF047C0093008F008E0BC
:10546000EEE2FE2E5B01A01AB108850191948194B1
:1054700091082F3F320729F4D601FC92F6013196AC
:105480006F016217730794F1021713077CF5DB01B4
:10549000A21BB30BAA24A394B12CAC0EBD1EAA0D63
:1054A000BB1D11968C9121503109D60111962815FA
:1054B0003905F4F0F60180836D01DBCFB12CA12C0E
:1054C000A0CFF701B1937F01A150AACF9111B0CF26
:1054D000D601942F50E302C05D9391509111FCCFFF
:1054E000C40ED11C40E0ACCF01E0BACF80E3DBCFEB
:1054F0006217730731F4963388F4953311F455230A
:1055000069F0F6018083FD01842F90E2811108C0CB
:10551000A40FB11D1C9290E080E002CF81E3F1CF97
:1055200091938150F3CF911183CF8ACFB0E0A0E067
:10553000ECE9FAE20C945C2E5C017B0161157105CB
:1055400019F0DB018D939C9385010F5F1F4FF501CF
:10555000D0818D2F90E00E94BE2C6C01892BB9F573
:10556000DD32B9F50F5F1F4FD5011196DC91C1E017
:105570005801F1E0AF1AB10843E050E060E770E095
:10558000C5010E94C72C892B69F5680182E0C80E0D
:10559000D11C45E050E06BE670E0C6010E94C72CCC
:1055A000892B21F4680197E0C90ED11CE114F104A4
:1055B00019F0D701CD92DC9260E070E080E89FEFB7
:1055C000C111FFC060E070E080E89FE7FAC05801B9
:1055D000BBCFDB3229F485010E5F1F4FF501D1816E
:1055E000C0E0C6CF43E050E068E670E0C5010E942D
:1055F000C72C892BE9F0F80110E000E020E030E052
:10560000A9015F01B0ED8B2E8D0E89E08815C8F1E0
:105610009C2E689491F88C2F8870C2FF16C081115F
:1056200002C00F5F1F4F3196D501DC91C92DE9CF24
:10563000E114F10429F00E5F1F4FF701118300837D
:1056400060E070E080EC9FE7BCC0882311F001505F
:105650001109A5E0B0E00E944B2E9B01AC01220F86
:10566000331F441F551F280D311D411D511D283961
:1056700099E93907490799E15907A8F2C6609C2EB4
:10568000D2CFAEEF8A1206C0C3FD3CC09C2E6894F8
:1056900093F8C9CFDF7DD534A9F580818D3239F4F7
:1056A000C061DF011296818162E070E006C0DF0117
:1056B0008B32C1F3119661E070E080535D01A61A50
:1056C000B70A8A30F8F4E0E8CE16ECE0DE065CF4C7
:1056D000B601660F771F660F771FC60ED71ECC0C5C
:1056E000DD1CC80ED11C5D01FFEFAF1ABF0A8C9103
:1056F00080538A30A8F1C4FF03C0D194C194D1086B
:105700000C0D1D1DC1FF09C0E114F10431F081E051
:10571000A81AB108D701AD92BC92CA01B9010E9482
:10572000F42CC370C33009F490584B015C0120E0A5
:1057300030E0A9010E94EF2C882309F440C0CFE992
:10574000D0E017FF05C0119501951109C7E8D0E019
:105750006E01B8E1CB1AD10880E2E82EF12C0FC01F
:10576000D501B1CFFE0125913591459154910E1986
:105770001F09C501B4010E94552D4B015C01D501E3
:10578000C4010E151F0574F72497F594E794CC1601
:10579000DD06A9F78A2F880F8B2F881F8F3F49F0CE
:1057A00020E030E0A901C501B4010E94EF2C811175
:1057B00006C082E290E09093300480932F04C501EC
:1057C000B401CDB7DEB7ECE00C94782E283008F0A9
:1057D00027E03327DA01990F311D87FD916000968C
:1057E0006105710539F432602E5F3D9330E32A95EF
:1057F000E1F708959F3F30F080387105610509F0A9
:105800003C5F3C5F3D93913008F08068911DDF93D1
:10581000CF931F930F93FF92EF92192F987F969536
:10582000E92F96959695E90FFF27E350FF4F9927AB
:105830003327EE24FF24A701E7010590089407947D
:1058400028F4360FE71EF81E491F511D660F771FFB
:10585000881F991F0694A1F70590079428F4E70E76
:10586000F81E491F561FC11D770F881F991F661FFD
:105870000694A1F70590079428F4F80E491F561FC7
:10588000C71FD11D880F991F661F771F0694A1F7A8
:105890000590079420F4490F561FC71FD81F990F72
:1058A000661F771F881F0694A9F7849110951770BB
:1058B00041F0D695C79557954795F794E7941A9573
:1058C000C1F7E3EAF0E06894159015913591659180
:1058D000959105907FE27395E118F10A430B560B01
:1058E000C90BD009C0F7E10CF11E431F561FC91F99
:1058F000D01D7EF4703311F48A95E6CFE894015000
:1059000030F0080F0AF40027021708F4202F23951F
:10591000022F7A3328F079E37D932A95E9F710C0B6
:105920007D932A9589F606949795679537951795EF
:105930001794E118F10A430B560BC90BD00998F0E4
:1059400023957E9173957A3308F070E37C9320134E
:10595000B8F77E9170617D9330F0839571E37D930C
:1059600070E32A95E1F71124EF90FF900F911F91BA
:10597000CF91DF91992787FD9095089591110C940F
:10598000C22D803219F089508550C8F70895FB0167
:10599000DC014150504088F08D9181341CF08B35F2
:1059A0000CF4805E659161341CF06B350CF4605E24
:1059B000861B611171F3990B0895881BFCCFDC01E4
:1059C000FC01672F71917723E1F7329704C07C9136
:1059D0006D9370836291AE17BF07C8F308950E945C
:1059E000312D08F481E00895E89409C097FB3EF456
:1059F00090958095709561957F4F8F4F9F4F99231C
:105A0000A9F0F92F96E9BB279395F6958795779599
:105A10006795B795F111F8CFFAF4BB0F11F460FF59
:105A20001BC06F5F7F4F8F4F9F4F16C0882311F0B1
:105A300096E911C0772321F09EE8872F762F05C0C5
:105A4000662371F096E8862F70E060E02AF09A9560
:105A5000660F771F881FDAF7880F9695879597F955
:105A60000895990F0008550FAA0BE0E8FEEF1616EF
:105A70001706E807F907C0F012161306E407F50742
:105A800098F0621B730B840B950B39F40A2661F0B6
:105A9000232B242B252B21F408950A2609F4A14059
:105AA000A6958FEF811D811D08950E94682D0C948D
:105AB000DC2D0E94CE2D38F00E94D52D20F09523AC
:105AC00011F00C94C52D0C94CB2D11240C94102E98
:105AD0000E94ED2D70F3959FC1F3950F50E0551F77
